:100000000C9434000C943E000C943E000C943E0082
:100010000C943E000C943E000C943E000C943E0068
:100020000C943E000C943E000C943E000C943E0058
:100030000C943E000C943E000C943E000C943E0048
:100040000C943E000C943E000C943E000C943E0038
:100050000C943E000C943E000C943E000C943E0028
:100060000C943E000C943E0011241FBECFEFD8E04C
:10007000DEBFCDBF0E9440000C9467000C940000CE
:10008000ECE7F0E080818F77808380818F708083C0
:10009000EAE7F0E08081836880838AB18FEF8AB9D4
:1000A00084B1836084B9EAE7F0E080818064808372
:1000B00080917A0086FDFCCF809178009091790044
:1000C0008BB985B18C7F9370892B85B9ECCFF8946F
:0200D000FFCF60
:00000001FF
